:100000000C9434000C9446000C9446000C9446006A
:100010000C9446000C9446000C9446000C94460048
:100020000C9446000C9446000C9446000C94460038
:100030000C9446000C9446000C9446000C94460028
:100040000C9446000C9446000C9446000C94460018
:100050000C9446000C9446000C9446000C94460008
:100060000C9446000C94460011241FBECFEFD8E03C
:10007000DEBFCDBF11E0A0E0B1E001C01D92A33210
:10008000B107E1F70E9448000C9415040C9400009D
:10009000CF93DF930E9433010E94EF03C8EBDBE0B4
:1000A00080E064E648EC0E94BC0380E064E648EC33
:1000B0000E942B03CE010197F1F7F2CF559A5D987C
:1000C000089587FF0BC05D9A00000000000000004B
:1000D00000000000000000005D980AC05D9A00006A
:1000E000000000005D98000000000000000000001B
:1000F00086FF0BC05D9A00000000000000000000B9
:100100000000000000005D980AC05D9A0000000039
:1001100000005D980000000000000000000085FF66
:100120000BC05D9A0000000000000000000000000D
:10013000000000005D980AC05D9A00000000000009
:100140005D980000000000000000000084FF0BC06C
:100150005D9A0000000000000000000000000000A8
:1001600000005D980AC05D9A0000000000005D98E4
:100170000000000000000000000083FF0BC05D9A3B
:10018000000000000000000000000000000000006F
:100190005D980AC05D9A0000000000005D980000B4
:1001A000000000000000000082FF0BC05D9A00000C
:1001B00000000000000000000000000000005D984A
:1001C0000AC05D9A0000000000005D980000000079
:1001D00000000000000081FF0BC05D9A00000000DD
:1001E0000000000000000000000000005D980AC050
:1001F0005D9A0000000000005D9800000000000013
:100200000000000080FF0BC05D9A000000000000AD
:10021000000000000000000000005D9808955D9A55
:100220000000000000005D980000000000000000D9
:10023000000008950F931F93182F862F042F0E94FC
:100240006100812F0E946100802F0E9461001F9138
:100250000F91089580E090E0000001962CE9803431
:100260009207D1F70895559A5D980895EFE0F1E06F
:10027000119281E0E332F807D9F708958F929F92A7
:10028000AF92BF92CF92DF92EF92FF920F931F93A4
:10029000CF93DF9380910601909107010097D1F4ED
:1002A0008FEF90E0909309018093080110920B0169
:1002B00010920A0110920D0110920C0100E010E062
:1002C000EE24FF2494E1892E912C88EBA82E8BE05C
:1002D000B82E37C08130910539F48FEF90E09093BC
:1002E00009018093080109C08230910559F41092E8
:1002F0000901109208018FEF90E090930B01809319
:100300000A01D8CF8330910559F410920901109257
:1003100008018FEF90E090930B0180930A010CC0CD
:10032000049761F6109209011092080110920B01D6
:1003300010920A018FEF90E090930D0180930C01D1
:10034000BDCF6401C01AD10AC0E0D0E006C080E091
:1003500060E040E00E941A012196C017D107B8F36F
:100360008091080160910A0140910C010E941A01DC
:100370008091080160910A0140910C010E941A01CC
:100380008091080160910A0140910C010E941A01BC
:10039000C0E0D0E006C080E060E040E00E941A01CA
:1003A0002196CC15DD05B8F30F5F1F4F0431110501
:1003B00010F000E010E0C5010197F1F70894E11C8E
:1003C000F11C84E1E816F10409F0BBCF809106012D
:1003D000909107010196909307018093060105977C
:1003E00020F01092070110920601DF91CF911F912A
:1003F0000F91FF90EF90DF90CF90BF90AF909F90C4
:100400008F900895CF93DF93C0E0D0E080910001FA
:1004100060910101409102010E941A012196C431AC
:10042000D105A1F780910301882331F48091000167
:100430008F3F59F08F5F07C0813039F48091000100
:10044000882319F081508093000180910401882352
:1004500031F4809101018F3F59F08F5F07C08130E7
:1004600039F480910101882319F0815080930101B2
:1004700080910501882331F4809102018F3F59F06A
:100480008F5F07C0813039F480910201882319F011
:10049000815080930201809100018F3FD9F48091B7
:1004A0000101882351F480910201882381F582E0C3
:1004B000809303011092040138C08F3F41F5809171
:1004C0000201882321F581E08093030182E080937B
:1004D00004012BC08823C9F4809101018F3F39F5B5
:1004E00080910201882341F482E08093030180938C
:1004F0000401109205011BC08F3FC9F41092030143
:1005000081E08093040182E010C08F3F81F48091EC
:100510000101882361F4809102018F3F41F482E060
:10052000809303018093040181E080930501DF91B2
:10053000CF9108952F923F924F925F926F927F9248
:100540008F929F92BF92CF92DF92EF92FF920F9382
:100550001F93DF93CF9300D000D0CDB7DEB7B82E76
:10056000C62ED42E80930E01861710F460930E01D0
:1005700080910E018D1510F4D0920E0180910E0124
:10058000082F10E0EE24FF24C901825F9E4F9A835A
:10059000898318014B2C55246C2C77248D2C99249D
:1005A000EFE0F1E0FC83EB8314C0EB81FC81808100
:1005B000882321F08B2D6C2D4D2D03C080E060E051
:1005C00040E00E941A012B813C812F5F3F4F3C830A
:1005D0002B838B819C81E981FA818E179F0729F7F4
:1005E00091012E193F094216530614F48B2D01C0B8
:1005F000802F6216730614F46C2D01C0602F8216D2
:10060000930614F44D2D01C0402F0E941A018CE274
:1006100091E00197F1F7015010400894E11CF11CA2
:10062000FFEF0F3F1F0709F0BBCF0F900F900F9008
:100630000F90CF91DF911F910F91FF90EF90DF907E
:10064000CF90BF909F908F907F906F905F904F90D2
:100650003F902F900895FF920F931F93CF93DF93B6
:10066000F82E062F142FC4E1D0E08F2D602F412FDC
:100670009E010E949A02FE01E25FFE4F10822197C6
:10068000A1F7DF91CF911F910F91FF9008952F92C5
:100690003F924F925F926F927F928F929F92AF9212
:1006A000BF92DF92EF92FF920F931F93CF93DF934E
:1006B000D82EE62EF42E80930E01861710F4609348
:1006C0000E0180910E018F1510F4F0920E0100E0E2
:1006D00010E04EE0442E41E0542E420E531E6D2C8D
:1006E00077248E2C9924AF2CBB242CE2222E21E0DF
:1006F000322E2AC0CFE0D1E00DC08881882321F0BE
:100700008D2D6E2D4F2D03C080E060E040E00E94F3
:100710001A012196C415D50581F7202F60167106A0
:1007200008F4262D602F8016910608F4682D402FBE
:10073000A016B10608F44A2D822F0E941A01C101A9
:100740000197F1F70F5F1F4F80910E0190E008179E
:10075000190780F2DF91CF911F910F91FF90EF90D9
:10076000DF90BF90AF909F908F907F906F905F9041
:100770004F903F902F900895EF92FF920F931F9309
:10078000CF93DF93F82E062F142FC0E0D0E0EE2495
:10079000E39421968F2D602F412F9E010E944703E5
:1007A000FE01E25FFE4FE082C431D10591F7DF9197
:1007B000CF911F910F91FF90EF900895CF93DF930A
:1007C000C0E0D0E080E060E040E00E941A012196A5
:1007D00081E0CC32D807B1F7DF91CF9108958FEF48
:1007E0008093000182E08093030180930401809351
:1007F000050188EE93E02CE231E0F9013197F1F741
:100800000197D9F70E94DE0388EE93E02CE231E0F5
:10081000F9013197F1F70197D9F7EFE0F1E0119283
:0E08200081E0E332F807D9F70895F894FFCF8E
:00000001FF
