:100000000C9434000C9446000C9446000C9446006A
:100010000C9446000C9446000C9446000C94460048
:100020000C9446000C9446000C9446000C94460038
:100030000C9446000C9446000C9446000C94460028
:100040000C9446000C9446000C9446000C94460018
:100050000C9446000C9446000C9446000C94460008
:100060000C9446000C94460011241FBECFEFD8E03C
:10007000DEBFCDBF11E0A0E0B1E001C01D92A6300F
:10008000B107E1F70E9448000C94D8010C940000DD
:10009000CF93DF930E943501C8ECDFEA0E94440150
:1000A000CE010197F1F7FACF559A5D98089587FF31
:1000B0000BC05D9A0000000000000000000000007E
:1000C000000000005D980AC05D9A0000000000007A
:1000D0005D980000000000000000000086FF0BC0DB
:1000E0005D9A000000000000000000000000000019
:1000F00000005D980AC05D9A0000000000005D9855
:100100000000000000000000000085FF0BC05D9AA9
:1001100000000000000000000000000000000000DF
:100120005D980AC05D9A0000000000005D98000024
:10013000000000000000000084FF0BC05D9A00007A
:1001400000000000000000000000000000005D98BA
:100150000AC05D9A0000000000005D9800000000E9
:1001600000000000000083FF0BC05D9A000000004B
:100170000000000000000000000000005D980AC0C0
:100180005D9A0000000000005D9800000000000083
:100190000000000082FF0BC05D9A0000000000001C
:1001A000000000000000000000005D980AC05D9A99
:1001B0000000000000005D9800000000000000004A
:1001C000000081FF0BC05D9A0000000000000000ED
:1001D00000000000000000005D980AC05D9A000069
:1001E000000000005D98000000000000000000001A
:1001F00080FF0BC05D9A00000000000000000000BE
:100200000000000000005D9808955D9A0000000065
:1002100000005D980000000000000000000008954C
:100220000F931F93182F862F042F0E945700812FA2
:100230000E945700802F0E9457001F910F91089530
:1002400080E090E0000001962CE980349207D1F71D
:1002500008951F9310E080E060E040E00E941001EC
:100260001F5F1A30C1F71F910895559A5D980E943B
:1002700029018FEF8093000182E080930301809336
:1002800004018093050108951F9310E080910001FF
:1002900060910101409102010E9410011F5F1A301C
:1002A000A9F780910301882331F4809100018F3FE9
:1002B00059F08F5F07C0813039F4809100018823A5
:1002C00019F081508093000180910401882331F45A
:1002D000809101018F3F59F08F5F07C0813039F461
:1002E00080910101882319F0815080930101809150
:1002F0000501882331F4809102018F3F59F08F5F0F
:1003000007C0813039F480910201882319F08150AF
:1003100080930201809100018F3FD9F48091010107
:10032000882351F480910201882381F582E0809333
:1003300003011092040138C08F3F41F58091020102
:10034000882321F581E08093030182E080930401FA
:100350002BC08823C9F4809101018F3F39F580912A
:100360000201882341F482E0809303018093040119
:10037000109205011BC08F3FC9F41092030181E068
:100380008093040182E010C08F3F81F480910101CD
:10039000882361F4809102018F3F41F482E08093D1
:1003A00003018093040181E0809305011F9108956A
:0403B000F894FFCFEF
:00000001FF
