:100000000C9434000C9451000C9451000C94510049
:100010000C94100B0C9451000C9451000C94510052
:100020000C9451000C9451000C9451000C9451000C
:100030000C9451000C9451000C9451000C945100FC
:100040000C944F0B0C9451000C9451000C945100E3
:100050000C9451000C9451000C9451000C945100DC
:100060000C9451000C94510011241FBECFEFD8E026
:10007000DEBFCDBF11E0A0E0B1E0EEE1F7E102C0EC
:1000800005900D92A233B107D9F712E0A2E3B1E0D7
:1000900001C01D92A930B107E1F70E9453000C94F2
:1000A0008D0B0C9400001F93CF93DF930E9470017F
:1000B0000E9480070E94090B0E947B018FE064E68A
:1000C00040E020E00E9486010E94A70113E0CCE2FC
:1000D000D1E0E0913201E19FF0011124E050FF4FA7
:1000E0008081809333016181609334014281409328
:1000F00035010E94480780E197E2FE013197F1F750
:100100000197D9F780913301609134014091350115
:100110000E94830680E197E2FE013197F1F7019793
:10012000D9F7809132018F5F80933201853088F258
:1001300010923201CECF559A5D98089587FF0BC07B
:100140005D9A0000000000000000000000000000B8
:1001500000005D980AC05D9A0000000000005D98F4
:100160000000000000000000000086FF0BC05D9A48
:10017000000000000000000000000000000000007F
:100180005D980AC05D9A0000000000005D980000C4
:10019000000000000000000085FF0BC05D9A000019
:1001A00000000000000000000000000000005D985A
:1001B0000AC05D9A0000000000005D980000000089
:1001C00000000000000084FF0BC05D9A00000000EA
:1001D0000000000000000000000000005D980AC060
:1001E0005D9A0000000000005D9800000000000023
:1001F0000000000083FF0BC05D9A000000000000BB
:10020000000000000000000000005D980AC05D9A38
:100210000000000000005D980000000000000000E9
:10022000000082FF0BC05D9A00000000000000008B
:1002300000000000000000005D980AC05D9A000008
:10024000000000005D9800000000000000000000B9
:1002500081FF0BC05D9A000000000000000000005C
:100260000000000000005D980AC05D9A00000000D8
:1002700000005D980000000000000000000080FF0A
:100280000BC05D9A000000000000000000000000AC
:10029000000000005D9808955D9A000000000000D5
:1002A0005D980000000000000000000008950F931A
:1002B0001F93182F862F042F0E949E00812F0E94CB
:1002C0009E00802F0E949E001F910F91089580E054
:1002D00090E0000001962CE980349207D1F7089550
:1002E000559A5D980895E9E4F1E0119281E0E636CF
:1002F000F807D9F70895E8E6F1E01082118212823A
:10030000349681E0EC3DF807C1F7089590E0FC01D8
:10031000EE0FFF1FEE0FFF1FA6E6B1E0EA0FFB1F77
:100320006283FC01EE0FFF1FEE0FFF1FEA0FFB1FA2
:1003300043830196880F991F880F991FA80FB91F33
:100340002C930895109267018FE090E00895CF9369
:10035000DF93C8E6D1E0888169814A810E94570114
:10036000249681E0CC3DD807B1F7DF91CF91089575
:10037000AF92BF92CF92DF92EF92FF920F931F93B3
:10038000CF93DF93062F10E090E0880F991F880F1E
:10039000991F28E6C22E21E0D22EC80ED91EA9E64A
:1003A000EA2EA1E0FA2EE80EF91EEC01C659DE4F46
:1003B000E8EBAE2EEBE0BE2E0BC0F6011083F7018A
:1003C000108218820E94A701C5010197F1F71F5FF3
:1003D000101798F3DF91CF911F910F91FF90EF903D
:1003E000DF90CF90BF90AF900895DF92EF92FF9291
:1003F0000F931F93CF93DF93D82EE62EF42EC0E0F9
:10040000D0E000E315E78D2D6E2D4F2D0E94570192
:10041000C8010197F1F72196CD31D105A1F7DF9100
:10042000CF911F910F91FF90EF90DF900895CF92A1
:10043000DF92FF920F931F93CF93DF93F82E062F37
:10044000142F80934401861710F460934401809127
:100450004401811710F410934401C0E0D0E040E360
:10046000C42E45E7D42E8F2D602F412F0E945701B7
:10047000C6010197F1F72196CD31D105A1F7DF91A2
:10048000CF911F910F91FF90DF90CF9008958F92A1
:100490009F92AF92BF92CF92DF92EF92FF920F9313
:1004A0001F93CF93DF9380913C0190913D01009782
:1004B000D1F48FEF90E090933F0180933E01109232
:1004C000410110924001109243011092420100E05C
:1004D00010E0EE24FF246DE1862E912C58EBA52E22
:1004E0005BE0B52E37C08130910539F48FEF90E095
:1004F00090933F0180933E0109C08230910559F4E9
:1005000010923F0110923E018FEF90E090934101D5
:1005100080934001D8CF8330910559F410923F0168
:1005200010923E018FEF90E0909341018093400143
:100530000CC0049761F610923F0110923E01109298
:100540004101109240018FEF90E09093430180931E
:100550004201BDCF6401C01AD10AC0E0D0E006C09C
:1005600080E060E040E00E9457012196C017D1076B
:10057000B8F380913E0160914001409142010E9498
:10058000570180913E0160914001409142010E94DB
:10059000570180913E0160914001409142010E94CB
:1005A0005701C0E0D0E006C080E060E040E00E947B
:1005B00057012196CC15DD05B8F30F5F1F4F0D31A4
:1005C000110510F000E010E0C5010197F1F7089463
:1005D000E11CF11C8DE1E816F10409F0BBCF80911C
:1005E0003C0190913D01019690933D0180933C0127
:1005F000059720F010923D0110923C01DF91CF91C0
:100600001F910F91FF90EF90DF90CF90BF90AF9030
:100610009F908F900895CF93DF93C0E0D0E08091BA
:10062000360160913701409138010E9457012196AF
:10063000CD31D105A1F780913901882331F4809122
:1006400036018F3F59F08F5F07C0813039F48091B8
:100650003601882319F081508093360180913A0148
:10066000882331F4809137018F3F59F08F5F07C0A5
:10067000813039F480913701882319F081508093BB
:10068000370180913B01882331F4809138018F3FFD
:1006900059F08F5F07C0813039F480913801882389
:1006A00019F0815080933801809136018F3FD9F441
:1006B00080913701882351F480913801882381F596
:1006C00082E08093390110923A0138C08F3F41F5A2
:1006D00080913801882321F581E08093390182E0FF
:1006E00080933A012BC08823C9F4809137018F3F52
:1006F00039F580913801882341F482E080933901F3
:1007000080933A0110923B011BC08F3FC9F41092B5
:10071000390181E080933A0182E010C08F3F81F47B
:1007200080913701882361F4809138018F3F41F433
:1007300082E08093390180933A0181E080933B010C
:10074000DF91CF9108952F923F924F925F926F92D7
:100750007F928F929F92AF92BF92DF92EF92FF9221
:100760000F931F93DF93CF9300D000D0CDB7DEB7A8
:10077000D82EE62EF42E290180934401861710F41A
:1007800060934401809144018F1510F4F09244016C
:10079000109267018091440163E00E945F0B282F53
:1007A00030E03A83298300E010E074E4272E71E002
:1007B000372E240C351C6D2C77248E2C9924AF2CCD
:1007C000BB2443C0EB81FC818581882321F08D2DE2
:1007D0006E2D4F2D03C080E060E040E00E94570185
:1007E0002B813C812F5F3F4F3C832B838B819C81EE
:1007F0008215930539F7202F6016710608F4262D0F
:10080000602F8016910608F4682D402FA016B106BF
:1008100008F44A2D822F0E9457015C824B820AC045
:1008200080E060E040E00E945701EB81FC8131965E
:10083000FC83EB832B813C812E31310588F38CE2E4
:1008400091E00197F1F70F5F1F4F89819A81081797
:10085000190728F4E4E4F1E0FC83EB83C7CF0F90A1
:100860000F900F900F90CF91DF911F910F91FF90FC
:10087000EF90DF90BF90AF909F908F907F906F90A0
:100880005F904F903F902F9008952F923F924F92FC
:100890005F926F927F928F929F92AF92BF92CF9210
:1008A000DF92EF92FF920F931F93CF93DF93D82E97
:1008B000E62EF42E290180934401861710F46093EC
:1008C0004401809144018F1510F4F092440100E03E
:1008D00010E0F4E42F2EF1E03F2E240C351C6D2C9B
:1008E00077248E2C9924AF2CBB24E0E6CE2E31C089
:1008F0008D81882321F08D2D6E2D4F2D03C080E03A
:1009000060E040E00E9457012196C215D30581F7AF
:10091000202F6016710608F4262D602F8016910690
:1009200008F4682D402FA016B10608F44A2D822F36
:100930000E945701C20104C02C2D2A95F1F701969F
:100940008D319105C8F38CE291E00197F1F70F5FCB
:100950001F4F8091440190E00817190718F4C4E470
:10096000D1E0D3CFDF91CF911F910F91FF90EF9006
:10097000DF90CF90BF90AF909F908F907F906F90BF
:100980005F904F903F902F9008952F923F924F92FB
:100990005F926F927F928F929F92AF92BF92CF920F
:1009A000DF92EF92FF920F931F93DF93CF9300D0CC
:1009B00000D0CDB7DEB7982EA62EB42E7901809345
:1009C0004401861710F460934401809144018B1513
:1009D00010F4B092440100E010E0892D90E09A8379
:1009E00089832A2C33244B2C5524ACE1CA2ED12CDC
:1009F000CE18DF084CC0892D6A2D4B2D0E9457015F
:100A00000894611C711C6E147F04A8F3202FE981E7
:100A1000FA81E017F10708F42E2F622E602F2016BE
:100A2000310608F4622D862E402F4016510608F438
:100A3000442D742E862D682D0E945701FC82EB8276
:100A400005C080E060E040E00E9457018B819C81FE
:100A500001969C838B838C159D0598F3862D682DBC
:100A6000472D0E9457016624772408C0892D6A2DDE
:100A70004B2D0E9457010894611C711C6E147F0459
:100A8000A8F38CE291E00197F1F70F5F1F4F80917F
:100A9000440190E00817190718F466247724B3CFAF
:100AA0000F900F900F900F90CF91DF911F910F91AA
:100AB000FF90EF90DF90CF90BF90AF909F908F907E
:100AC0007F906F905F904F903F902F900895AF92DE
:100AD000BF92CF92DF92EF92FF920F931F93CF932B
:100AE000DF93A82EB62ED42EB9E4EB2EB1E0FB2E68
:100AF0008701045E1F4FC0E0D0E0CC24C3948A2D50
:100B00006B2D4D2D9E010E94C504F701C1927F01FE
:100B1000F801C082219601501040CE30D10579F7FE
:100B2000DF91CF911F910F91FF90EF90DF90CF90C9
:100B3000BF90AF9008952F923F924F925F926F9225
:100B40007F928F929F92BF92CF92DF92EF92FF920D
:100B50000F931F93DF93CF93CDB7DEB728970FB6D0
:100B6000F894DEBF0FBECDBFB82EC62ED42E4901DD
:100B700080934401861710F46093440180914401EE
:100B80008D1510F4D092440120914401822F90E001
:100B900083709070009719F0281B20934401809176
:100BA0004401082F10E0EE24FF2494012C5B3E4FFB
:100BB0003A8329831C830B838B2D90E09E838D8346
:100BC0002C2C33244D2C5524C8018C7F9070049616
:100BD00066247724681A790A54C0EF81F8858581E4
:100BE000882321F08B2D6C2D4D2D03C080E060E01B
:100BF00040E00E9457012F8138852F5F3F4F388793
:100C00002F838F819885E981FA818E179F0729F7B5
:100C10002B813C812E0D3F1D8D819E818217930774
:100C200014F48B2D01C0802F2216330614F46C2D82
:100C300001C0602F4216530614F44D2D01C0402F01
:100C40000E94570198868F820AC080E060E040E0F1
:100C50000E945701EF81F8853196F887EF832F8145
:100C600038852E31310588F388E592E00197F1F758
:100C7000045010408CEF9FEFE80EF91EE614F704C5
:100C800029F0E4E4F1E0F887EF83BBCF28960FB6B4
:100C9000F894DEBF0FBECDBFCF91DF911F910F91B2
:100CA000FF90EF90DF90CF90BF909F908F907F90BC
:100CB0006F905F904F903F902F900895DF92EF924A
:100CC000FF920F931F93CF93DF93D82EE62EF42E2F
:100CD00005E611E0CCE1D0E08D2D6E2D4F2D9E016B
:100CE0000E949B05F8011082219701501040FFEFF0
:100CF000CF3FDF0789F7DF91CF911F910F91FF90D1
:100D0000EF90DF900895DF92EF92FF920F931F9381
:100D1000CF93DF93D82EE62EF42E05E611E0CCE13A
:100D2000D0E08D2D6E2D4F2D9E010E949B05F80168
:100D30001082219701501040FFEFCF3FDF0789F766
:100D4000DF91CF911F910F91FF90EF90DF90089569
:100D50002F923F924F925F926F927F928F929F92CB
:100D6000AF92BF92DF92EF92FF920F931F93DF93A8
:100D7000CF9300D000D0CDB7DEB7D82EE62EF42E1C
:100D8000290180934401861710F4609344018091F7
:100D900044018F1510F4F09244018091440163E006
:100DA0000E945F0B282F30E03A83298300E010E097
:100DB00084E4282E81E0382E240C351C6D2C7724F9
:100DC0008E2C9924AF2CBB2443C0EB81FC81858100
:100DD000882321F08D2D6E2D4F2D03C080E060E023
:100DE00040E00E9457012B813C812F5F3F4F3C83A5
:100DF0002B838B819C818215930539F7202F6016F8
:100E0000710608F4262D602F8016910608F4682DCF
:100E1000402FA016B10608F44A2D822F0E945701D8
:100E20005C824B820AC080E060E040E00E94570193
:100E3000EB81FC813196FC83EB832B813C812E314D
:100E4000310588F38CE291E00197F1F70F5F1F4FB6
:100E500089819A810817190728F4E4E4F1E0FC83FA
:100E6000EB83C7CF0F900F900F900F90CF91DF9132
:100E70001F910F91FF90EF90DF90BF90AF909F90E8
:100E80008F907F906F905F904F903F902F9008953C
:100E9000CF92DF92EF92FF920F931F93CF93DF9346
:100EA000D82EE62EF42E09E411E0C0E0D0E0CC24E8
:100EB000C3948D2D6E2D4F2D9E010E94A806F80122
:100EC000C1928F012196CD31D10599F7DF91CF9154
:100ED0001F910F91FF90EF90DF90CF900895CF93E7
:100EE000DF93C0E0D0E080E060E040E00E94570186
:100EF000219681E0CC32D807B1F7DF91CF910895E8
:100F00008FEF8093360182E08093390180933A011C
:100F100080933B0188EE93E02CE231E0F9013197B8
:100F2000F1F70197D9F70E946F0788EE93E02CE262
:100F300031E0F9013197F1F70197D9F7E9E4F1E0F0
:100F4000119281E0E636F807D9F708951092DC0196
:100F50001092DD0181E08093DE0180E090E0FC01F1
:100F6000E452FE4F1382019680329105C1F7109230
:100F7000FF01E0E0F2E0119282E0E830F807D9F7F3
:100F80001082089514BC15BC10926E008FEF85BBC3
:100F9000E8E6F0E0808182608083ECE6F0E080812A
:100FA00080648083D99A789408958FEF85BBEEE6AC
:100FB000F0E0108288EC86BD84E085BD81E085BBD1
:100FC0008083089510926E0015BC16BC0895549A43
:100FD0005C9A3E98469A08955C9A08955C980895A4
:100FE000813011F45C9A08955C98089586B190E080
:100FF00026E0969587952A95E1F7817008959C01E2
:1010000016BC81E085BD86B58233E8F316BC86B593
:1010100090E082179307D8F315BC089580912C01B6
:1010200090912D010E94FF07089580912E019091CB
:101030002F010E94FF0708958091300190913101A6
:101040000E94FF070895DF92EF92FF920F931F9384
:10105000DF93CF93CDB7DEB72A970FB6F894DEBFF4
:101060000FBECDBFFE0131969AE0DF011D929A9529
:10107000E9F791E09A87FE01329620E030E0482FB0
:1010800050E061E0CA01022E02C0959587950A944E
:10109000E2F780FF02C0608301C010822F5F3F4FE4
:1010A00031962830310571F7DFB6F8948E010F5F65
:1010B0001F4F3BE0E32EF12CEC0EFD1EF80180816A
:1010C000813011F45C9A01C05C980E940E080F5F99
:1010D0001F4F0E151F0591F7DFBE2A960FB6F89425
:1010E000DEBF0FBECDBFCF91DF911F910F91FF905B
:1010F000EF90DF900895FF920F931F93369B21C0CE
:1011000082E017C00E94150836990068173009F070
:1011100006951F5F1830B1F70E94150886B1F6FCDE
:1011200007C086FF05C00093DD011092DC0103C0FB
:1011300081E08093DC018091DD011F910F91FF9090
:1011400008950E941C08F6B000E010E0DBCF80910B
:10115000DD0108951092DD0108958093DD01089569
:10116000BF92CF92DF92EF92FF920F931F93CF9394
:10117000DF937B018C018FEFE816F1040105110567
:1011800009F030F4C8E0D0E062E0C62ED12C14C0E3
:1011900080E0E81680E0F80681E0080780E01807A4
:1011A00030F0C0E2D0E058E0C52ED12C05C0C0E13F
:1011B000D0E044E0C42ED12C80E30E94230888E7CD
:1011C0000E942308BB2417C02497D801C7010C2E06
:1011D00004C0B695A795979587950A94D2F790E0A5
:1011E0008F7090708A30910510F0C79601C0C0963C
:1011F0000E942308B3948B2D90E08C159D0520F35D
:10120000DF91CF911F910F91FF90EF90DF90CF90E2
:10121000BF900895AF92BF92CF92DF92EF92FF926C
:101220000F931F93CF93DF937B018C016F3F710569
:101230008105910509F018F4F7E0DF2E0DC060304C
:1012400030E0730731E0830730E0930718F0EFE1F7
:10125000DE2E02C07FE0D72E80E30E94230882E6C4
:101260000E942308C0E0D0E0CD2CDD245601089474
:10127000A11CB11CC6018C1B9D0BA801970104C0C9
:1012800056954795379527958A95D2F7DA01C90182
:1012900081709070892B11F081E301C080E30E947E
:1012A00023082196CA15DB0529F7DF91CF911F91FD
:1012B0000F91FF90EF90DF90CF90BF90AF90089587
:1012C0008DE00E9423088AE00E942308089580E2AE
:1012D0000E94230808958CE20E94230808951F931A
:1012E000CF93DF93EC0110E003C00E9423081F5F3F
:1012F000FE01E10FF11D80818823B9F7DF91CF91C5
:101300001F9108950E946F090E94600908950E942C
:101310006F090E94670908950E946F090E946B0976
:101320000895BF92CF92DF92EF92FF920F931F9397
:101330006B017C01611571058105910531F41092F5
:10134000000281E08093080223C0BB240B2D10E033
:1013500004521E4FC701B6012AE030E040E050E0E1
:101360000E946B0BF80164A3C701B6012AE030E0CC
:1013700040E050E00E946B0BC901DA016C017D0175
:10138000B394C114D104E104F10401F7B09208024E
:101390001F910F91FF90EF90DF90CF90BF90089535
:1013A0001F931091080209C01150E12FF0E0E452A0
:1013B000FE4F84A1805D0E9423081123A9F71F918D
:1013C0000895EF92FF920F931F937B018C0197FF7B
:1013D0000BC08DE20E94230810950095F094E094D4
:1013E000E11CF11C011D111DC801B7010E949109EA
:1013F0000E94D0091F910F91FF90EF9008950E94D5
:10140000E1090E94600908950E94E1090E946709AC
:1014100008950E94E1098EE191E00E946F0908950C
:101420000E94B0080E94600908950E94B0080E94BE
:10143000670908950E94B0088EE191E00E946F094B
:1014400008950E940A090E94600908950E940A09ED
:101450000E94670908950E940A098EE191E00E94A6
:101460006F090895EF92FF920F931F937A018B01FA
:101470000E946F090E946709C801B7010E94FF0915
:101480001F910F91FF90EF900895EF92FF920F93AD
:101490001F937A018B010E946F090E946709C8019E
:1014A000B7010E94040A1F910F91FF90EF900895D9
:1014B000EF92FF920F931F937A018B010E946F09A5
:1014C0000E946709C801B7010E94090A1F910F9184
:1014D000FF90EF900895EF92FF920F931F937A0180
:1014E0008B010E946F090E946709C801B7010E9421
:1014F000100A1F910F91FF90EF900895EF92FF92C5
:101500000F931F937A018B010E946F090E94670954
:10151000C801B7010E94150A1F910F91FF90EF902B
:101520000895EF92FF920F931F937A018B010E940F
:101530006F090E946709C801B7010E941A0A1F912A
:101540000F91FF90EF900895EF92FF920F931F93EA
:101550007A018B010E946F090E946709C801B701D7
:101560000E94210A1F910F91FF90EF900895EF9232
:10157000FF920F931F937A018B010E946F090E94C3
:101580006709C801B7010E94260A1F910F91FF90B9
:10159000EF900895EF92FF920F931F937A018B01C2
:1015A0000E946F090E946709C801B7010E942B0AB7
:1015B0001F910F91FF90EF900895ECEDF1E0E80F8F
:1015C000F11D838108958091FF01089580E090E0EE
:1015D000FC01E452FE4F1382019680329105C1F75F
:1015E0001092FF0108958091DE0108958091DE013F
:1015F000882311F090E008C08091FF0190E08823DB
:1016000009F491E081E09827892F08958091FF01E6
:1016100008950E94A6070E94C2070E94E707089546
:101620001F920F920FB60F9211242F933F934F9357
:101630005F936F937F938F939F93AF93BF93EF933A
:10164000FF9381E08093DE010E947B08982F8091B8
:10165000DC01882399F4E091FF01F0E0E452FE4FB1
:1016600093838091FF018F5F8093FF018091FF0141
:10167000813210F01092FF010E94D507FF91EF9187
:10168000BF91AF919F918F917F916F915F914F919A
:101690003F912F910F900FBE0F901F9018951F92A2
:1016A0000F920FB60F92112410926E0015BC16BC4B
:1016B0001092DE010F900FBE0F901F901895991B8E
:1016C00079E004C0991F961708F0961B881F7A9539
:1016D000C9F780950895A1E21A2EAA1BBB1BFD0134
:1016E0000DC0AA1FBB1FEE1FFF1FA217B307E40701
:1016F000F50720F0A21BB30BE40BF50B661F771F59
:10170000881F991F1A9469F7609570958095909538
:0E1710009B01AC01BD01CF010895F894FFCFFD
:10171E00FED70066CC00739BD03333FEB266FE005C
:10172E0010200010200010200010200010202C008F
:10173E00CE049C044E024E023A02E600C800D200CD
:02174E00140085
:00000001FF
