:100000000C9434000C9446000C9446000C9446006A
:100010000C9446000C9446000C9446000C94460048
:100020000C9446000C9446000C9446000C94460038
:100030000C9446000C9446000C9446000C94460028
:100040000C9446000C9446000C9446000C94460018
:100050000C9446000C9446000C9446000C94460008
:100060000C9446000C94460011241FBECFEFD8E03C
:10007000DEBFCDBF11E0A0E0B1E001C01D92A93408
:10008000B107E1F70E9448000C94A0050C94000011
:100090000F931F93CF93DF930E9445010E947A052F
:1000A000CCE2D1E008EB1BE080E062E340E00E949C
:1000B000470580E197E2FE013197F1F70197D9F703
:1000C00080E062E340E00E94A80480E197E2FE0144
:1000D0003197F1F70197D9F7C8010197F1F7E4CF0C
:1000E000559A5D98089587FF0BC05D9A0000000047
:1000F0000000000000000000000000005D980AC041
:100100005D9A0000000000005D9800000000000003
:100110000000000086FF0BC05D9A00000000000098
:10012000000000000000000000005D980AC05D9A19
:100130000000000000005D980000000000000000CA
:10014000000085FF0BC05D9A000000000000000069
:1001500000000000000000005D980AC05D9A0000E9
:10016000000000005D98000000000000000000009A
:1001700084FF0BC05D9A000000000000000000003A
:100180000000000000005D980AC05D9A00000000B9
:1001900000005D980000000000000000000083FFE8
:1001A0000BC05D9A0000000000000000000000008D
:1001B000000000005D980AC05D9A00000000000089
:1001C0005D980000000000000000000082FF0BC0EE
:1001D0005D9A000000000000000000000000000028
:1001E00000005D980AC05D9A0000000000005D9864
:1001F0000000000000000000000081FF0BC05D9ABD
:1002000000000000000000000000000000000000EE
:100210005D980AC05D9A0000000000005D98000033
:10022000000000000000000080FF0BC05D9A00008D
:1002300000000000000000000000000000005D98C9
:1002400008955D9A0000000000005D980000000025
:1002500000000000000008950F931F93182F862FB1
:10026000042F0E947300812F0E947300802F0E9430
:1002700073001F910F91089580E090E000000196B7
:100280002CE980349207D1F70895559A5D98089526
:10029000EFE0F1E0119281E0E934F807D9F7089531
:1002A000DF92EF92FF920F931F93CF93DF93D82E9D
:1002B000E62EF42EC0E0D0E000E315E78D2D6E2D84
:1002C0004F2D0E942C01C8010197F1F72196CA33E6
:1002D000D105A1F7DF91CF911F910F91FF90EF9082
:1002E000DF900895CF92DF92FF920F931F93CF93E9
:1002F000DF93F82E062F142F80930E01861710F42B
:1003000060930E0180910E01811710F410930E017D
:10031000C0E0D0E080E3C82E85E7D82E8F2D602F77
:10032000412F0E942C01C6010197F1F72196CA3393
:10033000D105A1F7DF91CF911F910F91FF90DF9031
:10034000CF9008958F929F92AF92BF92CF92DF92FB
:10035000EF92FF920F931F93CF93DF93809106014B
:10036000909107010097D1F48FEF90E090930901ED
:100370008093080110920B0110920A0110920D0156
:1003800010920C0100E010E0EE24FF242AE3822EFC
:10039000912C98EBA92E9BE0B92E37C081309105A6
:1003A00039F48FEF90E0909309018093080109C020
:1003B0008230910559F410920901109208018FEFD3
:1003C00090E090930B0180930A01D8CF8330910580
:1003D00059F410920901109208018FEF90E0909368
:1003E0000B0180930A010CC0049761F61092090179
:1003F0001092080110920B0110920A018FEF90E009
:1004000090930D0180930C01BDCF6401C01AD10AF5
:10041000C0E0D0E006C080E060E040E00E942C0137
:100420002196C017D107B8F38091080160910A01A5
:1004300040910C010E942C018091080160910A01F9
:1004400040910C010E942C018091080160910A01E9
:1004500040910C010E942C01C0E0D0E006C080E079
:1004600060E040E00E942C012196CC15DD05B8F338
:100470000F5F1F4F0A33110510F000E010E0C501B7
:100480000197F1F70894E11CF11C8AE3E816F104E6
:1004900009F0BBCF809106019091070101969093DE
:1004A000070180930601059720F010920701109232
:1004B0000601DF91CF911F910F91FF90EF90DF9098
:1004C000CF90BF90AF909F908F900895CF93DF9380
:1004D000C0E0D0E0809100016091010140910201F3
:1004E0000E942C012196CA33D105A1F78091030106
:1004F000882331F4809100018F3F59F08F5F07C04E
:10050000813039F480910001882319F08150809363
:10051000000180910401882331F4809101018F3F13
:1005200059F08F5F07C0813039F480910101882331
:1005300019F081508093010180910501882331F4E5
:10054000809102018F3F59F08F5F07C0813039F4ED
:1005500080910201882319F08150809302018091DB
:1005600000018F3FD9F480910101882351F48091DB
:100570000201882381F582E0809303011092040137
:1005800038C08F3F41F580910201882321F581E039
:100590008093030182E0809304012BC08823C9F477
:1005A000809101018F3F39F580910201882341F448
:1005B00082E08093030180930401109205011BC027
:1005C0008F3FC9F41092030181E08093040182E01F
:1005D00010C08F3F81F480910101882361F48091E4
:1005E00002018F3F41F482E0809303018093040174
:1005F00081E080930501DF91CF9108952F923F9282
:100600004F925F926F927F928F929F92AF92BF9222
:10061000CF92DF92EF92FF920F931F93CF93DF93CE
:10062000D82EE62EF42E80930E01861710F46093D8
:100630000E0180910E018F1510F4F0920E0100E072
:1006400010E019010894210831084EE0442E41E0E1
:10065000542E420E531E6D2C77248E2C9924AF2CD1
:10066000BB2430E6C32E34C0CFE0D1E00DC088817A
:10067000882321F08D2D6E2D4F2D03C080E060E08A
:1006800040E00E942C012196C415D50581F7202F4A
:100690006016710608F4262D602F8016910608F466
:1006A000682D402FA016B10608F44A2D822F0E9413
:1006B0002C01C10104C02C2D2A95F1F701968A3333
:1006C0009105C8F38CE291E00197F1F70F5F1F4F9E
:1006D00080910E0190E00817190730F2DF91CF9159
:1006E0001F910F91FF90EF90DF90CF90BF90AF9050
:1006F0009F908F907F906F905F904F903F902F9042
:1007000008952F923F924F925F926F927F928F92B5
:100710009F92AF92BF92CF92DF92EF92FF920F9390
:100720001F93CF93DF93D82EE62EF42E80930E01E5
:10073000861710F460930E0180910E018F1510F44E
:10074000F0920E0100E010E0190108942108310830
:100750006EE0462E61E0562E420E531E6D2C77241D
:100760008E2C9924AF2CBB2450E6C52E34C0CFE08C
:10077000D1E00DC08881882321F08D2D6E2D4F2D65
:1007800003C080E060E040E00E942C012196C41587
:10079000D50581F7202F6016710608F4262D602FED
:1007A0008016910608F4682D402FA016B10608F4B3
:1007B0004A2D822F0E942C01C10104C02C2D2A95A4
:1007C000F1F701968A339105C8F38CE291E0019725
:1007D000F1F70F5F1F4F80910E0190E00817190786
:1007E00030F2DF91CF911F910F91FF90EF90DF904A
:1007F000CF90BF90AF909F908F907F906F905F90C1
:100800004F903F902F9008952F923F924F925F927A
:100810006F927F928F929F92AF92BF92CF92DF9210
:10082000EF92FF920F931F93DF93CF9300D000D0EE
:1008300000D0CDB7DEB7B82EC62ED42E80930E01D1
:10084000861710F460930E0180910E018D1510F43F
:10085000D0920E0180910E01082F10E0EE24FF24AB
:10086000C90101979A838983F901E25FFE4FFC83F6
:10087000EB8318014B2C55246C2C77248D2C992458
:1008800070E6A72E2FE031E012C0ED81FE8180815D
:10089000882321F08B2D6C2D4D2D03C080E060E06E
:1008A00040E00E942C012D813E812F5F3F4F3E830F
:1008B0002D838D819E81EB81FC818E179F0729F707
:1008C00091012E193F094216530614F48B2D01C0D5
:1008D000802F6216730614F46C2D01C0602F8216EF
:1008E000930614F44D2D01C0402F0E942C018981E4
:1008F0009A8104C02A2D2A95F1F701968A33910531
:10090000C8F38CE291E00197F1F701501040089490
:10091000E11CF11CFFEF0F3F1F0709F0B3CF269634
:100920000FB6F894DEBF0FBECDBFCF91DF911F9100
:100930000F91FF90EF90DF90CF90BF90AF909F907E
:100940008F907F906F905F904F903F902F90089581
:10095000FF920F931F93CF93DF93F82E062F142F40
:10096000CAE3D0E08F2D602F412F9E010E94040426
:10097000FE01E25FFE4F10822197A1F7DF91CF9138
:100980001F910F91FF9008952F923F924F925F9287
:100990006F927F928F929F92AF92BF92CF92DF928F
:1009A000EF92FF920F931F93CF93DF93D82EE62EF3
:1009B000F42E80930E01861710F460930E0180913F
:1009C0000E018F1510F4F0920E0100E010E01901F5
:1009D000089421083108FEE04F2EF1E05F2E420E10
:1009E000531E6D2C77248E2C9924AF2CBB24E0E66B
:1009F000CE2E34C0CFE0D1E00DC08881882321F015
:100A00008D2D6E2D4F2D03C080E060E040E00E94F0
:100A10002C012196C415D50581F7202F601671068B
:100A200008F4262D602F8016910608F4682D402FBB
:100A3000A016B10608F44A2D822F0E942C01C10194
:100A400004C02C2D2A95F1F701968A339105C8F33D
:100A50008CE291E00197F1F70F5F1F4F80910E013B
:100A600090E00817190730F2DF91CF911F910F9195
:100A7000FF90EF90DF90CF90BF90AF909F908F90BE
:100A80007F906F905F904F903F902F900895EF92DE
:100A9000FF920F931F93CF93DF93F82E062F142FFF
:100AA000C0E0D0E0EE24E39421968F2D602F412FFB
:100AB0009E010E94C404FE01E25FFE4FE082CA3341
:100AC000D10591F7DF91CF911F910F91FF90EF909A
:100AD0000895CF93DF93C0E0D0E080E060E040E095
:100AE0000E942C01219681E0CC32D807B1F7DF912A
:100AF000CF9108958FEF8093000182E080930301EE
:100B0000809304018093050188EE93E02CE231E0AC
:100B1000F9013197F1F70197D9F70E94690588EE3D
:100B200093E02CE231E0F9013197F1F70197D9F721
:100B3000EFE0F1E0119281E0E934F807D9F7089588
:040B4000F894FFCF57
:00000001FF
